:020000040800F2
:1000000000040020C1010008412E0008412E000814
:10001000511E0008412E0008412E0008412E000804
:10002000412E0008412E0008412E0008E151000831
:10003000412E0008412E0008412E000831A2000880
:10004000412E00087173000851750008B175000851
:10005000412E0008412E000861700008C1700008A0
:100060002171000881710008E17100081180000809
:1000700061800008B18000080181000851810008FA
:10008000A1810008F1810008C1780008D17C000836
:10009000417D0008F17D0008A17E00084172000842
:1000A000412E0008412E0008919C0008412E0008B6
:1000B000F19D0008319E0008719E0008218800080B
:1000C00061890008412E0008412E0008412E0008D9
:1000D000412E0008412E0008412E0008F1A2000820
:1000E000D1720008D173000831740008412E000855
:1000F000412E0008D19C0008412E000841820008D2
:10010000412E0008F1920008B19E0008412E00081F
:10011000412E0008412E0008519C0008412E000885
:1001200091820008E1820008318300088183000881
:10013000D1830008412E000891740008412E000868
:10014000412E0008412E0008412E0008D18F0008E2
:100150002184000871840008C1840008412E000831
:10016000412E0008412E0008412E0008412E0008B3
:10017000F1740008412E0008911A0008412E000871
:10018000412E0008412E0008412E0008412E000893
:10019000412E0008412E0008412E0008412E000883
:1001A000412E0008412E0008412E0008412E000873
:1001B000412E0008412E0008412E0008412E000863
:1001C00072B62F4880F3098840F20000CCF200009C
:1001D0004EF63471CEF20001086040F20000C0F229
:1001E000F0004EF68851CEF2000108604FF000009A
:1001F000E1EE100A4EF63C71CEF2000108600620D6
:1002000080F31488BFF36F8F02F0F2FD0AF0B8F9A3
:100210004FF055301B491C4A91423CBF41F8040B3A
:10022000FAE71A49164A91423CBF41F8040BFAE733
:100230001749184A184B9A423EBF51F8040B42F82E
:10024000040BF8E700201549154A91423CBF41F8DC
:10025000040BFAE702F0DCFD124C134DAC4203DA5A
:1002600054F8041B8847F9E701F0A2FB0F4C104D2E
:10027000AC4203DA54F8041B8847F9E702F0D8BD12
:1002800000080020000000200004002000040020DE
:10029000E8FF0008000800201412002018120020B7
:1002A0004C2E0020C0010008C0010008C001000859
:1002B000C001000800000000000000000000000075
:1002C0002DE9F04F2DED108AC1F80CD0D0F80CD0EC
:1002D000BDEC108ABDE8F08F02F0F2FE03F060FF83
:1002E000002383F311882846A047002003F0C0FCB8
:1002F00003F03EFF02F0C4FE03F0E2FA02F0E0FE7B
:1003000003F04EFF00DFFEE70000000000000000E9
:1003100081F0004102E000BF83F0004330B54FEAB6
:1003200041044FEA430594EA050F08BF90EA020F23
:100330001FBF54EA000C55EA020C7FEA645C7FEAB6
:10034000655C00F0E2804FEA5454D4EB5555B8BFD9
:100350006D420CDD2C4480EA020281EA030382EA4A
:10036000000083EA010180EA020281EA0303362DDC
:1003700088BF30BD11F0004F4FEA01314FF4801CAF
:100380004CEA113102D0404261EB410113F0004FC1
:100390004FEA03334CEA133302D0524263EB430378
:1003A00094EA050F00F0A780A4F10104D5F1200E16
:1003B0000DDB02FA0EFC22FA05F2801841F1000171
:1003C00003FA0EF2801843FA05F359410EE0A5F145
:1003D00020050EF1200E012A03FA0EFC28BF4CF076
:1003E000020C43FA05F3C01851EBE37101F000452C
:1003F00007D54FF0000EDCF1000C7EEB00006EEB39
:100400000101B1F5801F1BD3B1F5001F0CD34908C2
:100410005FEA30004FEA3C0C04F101044FEA445219
:1004200012F5800F80F09A80BCF1004F08BF5FEAA0
:10043000500C50F1000041EB045141EA050130BD80
:100440005FEA4C0C404141EB010111F4801FA4F123
:100450000104E9D191F0000F04BF01460020B1FA78
:1004600081F308BF2033A3F10B03B3F120020CDAB0
:100470000C3208DD02F1140CC2F10C0201FA0CF08E
:1004800021FA02F10CE002F11402D8BFC2F1200CF3
:1004900001FA02F120FA0CFCDCBF41EA0C019040A9
:1004A000E41AA2BF01EB0451294330BD6FEA0404F2
:1004B0001F3C1CDA0C340EDC04F11404C4F12002DD
:1004C00020FA04F001FA02F340EA030021FA04F3EF
:1004D00045EA030130BDC4F10C04C4F1200220FA46
:1004E00002F001FA04F340EA0300294630BD21FA84
:1004F00004F0294630BD94F0000F83F4801306BF4A
:1005000081F480110134013D4EE77FEA645C18BF3D
:100510007FEA655C29D094EA050F08BF90EA020FD4
:1005200005D054EA000C04BF1946104630BD91EACC
:10053000030F1EBF0021002030BD5FEA545C05D1CF
:100540004000494128BF41F0004130BD14F580040E
:100550003CBF01F5801130BD01F0004545F0FE4182
:1005600041F470014FF0000030BD7FEA645C1ABFB7
:10057000194610467FEA655C1CBF0B46024650EAEE
:10058000013406BF52EA033591EA030F41F400211A
:1005900030BD00BF90F0000F04BF0021704730B5A0
:1005A0004FF4806404F132044FF000054FF0000175
:1005B00050E700BF90F0000F04BF0021704730B536
:1005C0004FF4806404F1320410F0004548BF40420B
:1005D0004FF000013EE700BF42004FEAE2014FEA60
:1005E00031014FEA02701FBF12F07F4393F07F4F3B
:1005F00081F06051704732F07F4208BF704793F03E
:100600007F4F04BF41F40021704730B54FF4607450
:1006100001F0004521F000411CE700BF50EA010253
:1006200008BF704730B54FF000050AE050EA0102FC
:1006300008BF704730B511F0004502D5404261EB6C
:1006400041014FF4806404F132045FEA915C3FF4AD
:10065000D8AE4FF003025FEADC0C18BF03325FEA4A
:10066000DC0C18BF033202EBDC02C2F1200300FAFB
:1006700003FC20FA02F001FA03FE40EA0E0021FA20
:1006800002F11444BDE600BF0000000000000000BD
:1006900070B54FF0FF0C4CF4E06C1CEA11541DBF18
:1006A0001CEA135594EA0C0F95EA0C0F00F0DEF8E3
:1006B0002C4481EA030621EA4C5123EA4C5350EAC8
:1006C000013518BF52EA033541F4801143F4801319
:1006D00038D0A0FB02CE4FF00005E1FB02E506F0AA
:1006E0000042E0FB03E54FF00006E1FB03569CF0FF
:1006F000000F18BF4EF0010EA4F1FF04B6F5007F05
:1007000064F5407404D25FEA4E0E6D4146EB060676
:1007100042EAC62141EA55514FEAC52040EA5E50FF
:100720004FEACE2EB4F1FD0C88BFBCF5E06F1ED8A9
:10073000BEF1004F08BF5FEA500E50F1000041EBE0
:10074000045170BD06F0004646EA010140EA02008D
:1007500081EA0301B4EB5C04C2BFD4EB0C0541EAAF
:10076000045170BD41F480114FF0000E013C00F3C4
:10077000AB8014F1360FDEBF002001F0004170BDE8
:10078000C4F10004203C35DA0C341BDC04F1140401
:10079000C4F1200500FA05F320FA04F001FA05F28D
:1007A00040EA020001F0004221F0004110EBD3705A
:1007B00021FA04F642EB06015EEA430E08BF20EA86
:1007C000D37070BDC4F10C04C4F1200500FA04F329
:1007D00020FA05F001FA04F240EA020001F00041BB
:1007E00010EBD37041F100015EEA430E08BF20EA2E
:1007F000D37070BDC4F1200500FA05F24EEA020E76
:1008000020FA04F301FA05F243EA020321FA04F0A4
:1008100001F0004121FA04F220EA020000EBD3705B
:100820005EEA430E08BF20EAD37070BD94F0000F5B
:100830000FD101F00046400041EB010111F4801F8F
:1008400008BF013CF7D041EA060195F0000F18BF40
:10085000704703F00046520043EB030313F4801F7C
:1008600008BF013DF7D043EA0603704794EA0C0F36
:100870000CEA135518BF95EA0C0F0CD050EA41064C
:1008800018BF52EA4306D1D181EA030101F00041C9
:100890004FF0000070BD50EA410606BF10461946F1
:1008A00052EA430619D094EA0C0F02D150EA0136FD
:1008B00013D195EA0C0F05D152EA03361CBF10463E
:1008C00019460AD181EA030101F0004141F0FE41DD
:1008D00041F470014FF0000070BD41F0FE4141F461
:1008E000780170BD70B54FF0FF0C4CF4E06C1CEA61
:1008F00011541DBF1CEA135594EA0C0F95EA0C0F16
:1009000000F0A7F8A4EB050481EA030E52EA0335D0
:100910004FEA013100F088804FEA03334FF08055F1
:1009200045EA131343EA12634FEA022245EA11151E
:1009300045EA10654FEA00260EF000419D4208BFCF
:10094000964244F1FD0404F5407402D25B084FEA7C
:100950003202B61A65EB03055B084FEA32024FF428
:1009600080104FF4002CB6EB020E75EB030E22BF85
:10097000B61A754640EA0C005B084FEA3202B6EB45
:10098000020E75EB030E22BFB61A754640EA5C00F4
:100990005B084FEA3202B6EB020E75EB030E22BF84
:1009A000B61A754640EA9C005B084FEA3202B6EB85
:1009B000020E75EB030E22BFB61A754640EADC0044
:1009C00055EA060E18D04FEA051545EA16754FEAA6
:1009D00006164FEAC30343EA52734FEAC2025FEAC4
:1009E0001C1CC0D111F4801F0BD141EA00014FF053
:1009F00000004FF0004CB6E711F4801F04BF014324
:100A00000020B4F1FD0C88BFBCF5E06F3FF6AFAE3F
:100A1000B5EB030C04BFB6EB020C5FEA500C50F1CF
:100A2000000041EB045170BD0EF0004E4EEA113152
:100A300014EB5C04C2BFD4EB0C0541EA045170BD59
:100A400041F480114FF0000E013C90E645EA060E9D
:100A50008DE60CEA135594EA0C0F08BF95EA0C0FCB
:100A60003FF43BAF94EA0C0F0AD150EA01347FF413
:100A700034AF95EA0C0F7FF425AF104619462CE7EA
:100A800095EA0C0F06D152EA03353FF4FDAE10464D
:100A9000194622E750EA410618BF52EA43067FF49E
:100AA000C5AE50EA41047FF40DAF52EA43057FF42E
:100AB000EBAE12E7000000000000000000000000A4
:100AC0004FEA410212F5001215D211D56FF4787376
:100AD000B3EB625212D94FEAC12343F0004343EA19
:100AE000505311F0004F23FA02F018BF40427047F4
:100AF0004FF00000704750EA013005D111F000407E
:100B000008BF6FF0004070474FF00000704700BF13
:100B100053B94AB9002908BF00281CBF4FF0FF3164
:100B20004FF0FF3000F074B9ADF1080C6DE904CE60
:100B300000F006F8DDF804E0DDE9022304B07047B8
:100B40002DE9F047089E04468846002B4BD18A4287
:100B5000154667D9B2FA82F24AB1C2F1200701FA0A
:100B600002F320FA07F7954047EA030894404FEA5A
:100B7000154E230CB8FBFEF71FFA85FC0EFB1788F9
:100B800043EA084307FB0CF1994209D9EB1807F136
:100B9000FF3080F01B81994240F21881023F2B44C4
:100BA0005B1AA4B2B3FBFEF00EFB103344EA03441D
:100BB00000FB0CFCA44509D92C1900F1FF3380F08F
:100BC0000781A44540F2048102382C4440EA0740E2
:100BD000A4EB0C0400271EB1D4400023C6E9004357
:100BE0003946BDE8F0878B4209D9002E00F0EB8032
:100BF0000027C6E9000138463946BDE8F087B3FA58
:100C000083F7002F47D18B4202D3824200F2FA8051
:100C1000841A61EB030301209846002EE0D0C6E958
:100C20000048DDE702B9FFDEB2FA82F2002A40F0A6
:100C30008F80491B4FEA154E1FFA85F80127B1FB3B
:100C4000FEFC230C0EFB1C1143EA014308FB0CF1D4
:100C5000994207D9EB180CF1FF3002D2994200F209
:100C6000CD808446591AA3B2B1FBFEF00EFB1014DE
:100C700043EA044408FB00F8A04507D92C1900F109
:100C8000FF3302D2A04500F2B6801846A4EB080458
:100C900040EA0C409FE7C7F1200CBB4022FA0CFE53
:100CA0004EEA030E01FA07F420FA0CF521FA0CF3D0
:100CB0004FEA1E482543B3FBF8F92C0C08FB193307
:100CC0001FFA8EFA44EA034309FB0AF49C4202FA33
:100CD00007F200FA07F10BD91EEB030309F1FF300D
:100CE00080F087809C4240F28480A9F1020973441D
:100CF0001B1BADB2B3FBF8F008FB103345EA03440D
:100D000000FB0AFAA24508D91EEB040400F1FF33E8
:100D10006BD2A24569D90238744440EA0940A0FB6D
:100D20000289A4EB0A044C45C2464B4654D351D029
:100D3000002E69D0B1EB0A0564EB030404FA0CFC45
:100D4000FD40FC404CEA0505C6E90054002747E792
:100D5000C2F1200320FA03F7954001FA02F021FACC
:100D600003F34FEA154E3843010CB3FBFEF71FFAAD
:100D700085F80EFB173341EA034107FB08F38B426A
:100D800004FA02F407D9691807F1FF3C2FD28B420D
:100D90002DD9023F2944CB1A81B2B3FBFEF00EFBE2
:100DA000103341EA034100FB08F38B4207D969186D
:100DB00000F1FF3C17D28B4215D902382944C91AD9
:100DC00040EA07473BE73746304609E70746E7E68C
:100DD0001846FBE64145ABD2B8EB020A69EB0E02BE
:100DE00001381346A4E76046E9E7184695E76746E9
:100DF000D1E781467CE702382C4447E7ACF1020C8E
:100E00002B442FE7384608E73746E9E600000000A4
:100E1000704700BF0000000000000000000000005C
:100E2000844641EA000313F003036DD1403A41D3F5
:100E300051F8043B40F8043B51F8043B40F8043BB4
:100E400051F8043B40F8043B51F8043B40F8043BA4
:100E500051F8043B40F8043B51F8043B40F8043B94
:100E600051F8043B40F8043B51F8043B40F8043B84
:100E700051F8043B40F8043B51F8043B40F8043B74
:100E800051F8043B40F8043B51F8043B40F8043B64
:100E900051F8043B40F8043B51F8043B40F8043B54
:100EA00051F8043B40F8043B51F8043B40F8043B44
:100EB000403ABDD2303211D351F8043B40F8043BE4
:100EC00051F8043B40F8043B51F8043B40F8043B24
:100ED00051F8043B40F8043B103AEDD20C3205D3F4
:100EE00051F8043B40F8043B043AF9D2043208D0EC
:100EF000D2071CBF11F8013B00F8013B01D30B885E
:100F000003806046704700BF082A13D38B078DD03B
:100F100010F003038AD0C3F10403D21ADB071CBF0D
:100F200011F8013B00F8013B80D331F8023B20F877
:100F3000023B7BE7043AD9D3013A11F8013B00F8B0
:100F4000013BF9D20B7803704B7843708B78837038
:100F50006046704700000000000000000000000034
:100F6000A2EB0300704700BF02780B78012A28BF6C
:100F70009A42F5D16DE9044540EA0104CDE90267E2
:100F80006FF0000C4FEA447212B380EA010414F0CF
:100F9000070F6AD100F0070420F0070004F00305F2
:100FA00021F007014FEAC505F0E8042314F0040F0F
:100FB000F1E804670CFA05F462EA040266EA040642
:100FC0000AD063EA0403624667EA0407664603E060
:100FD000F0E80423F1E8046782FA4CF582EA06049B
:100FE000A4FA8CF46CBB83FA4CF583EA0705A5FAE6
:100FF0008CF595B950E9022351E9026782FA4CF564
:1010000082EA0604A4FA8CF483FA4CF583EA070515
:10101000A5FA8CF52543DBD09CB92DBAB5FA85F439
:1010200024F0070427FA04F1DDE9026723FA04F348
:1010300003F0FF0001F0FF01FDE80445A0EB010013
:10104000704724BAB4FA84F424F0070426FA04F1B1
:10105000DDE9026722FA04F202F0FF0001F0FF016D
:10106000FDE80445A0EB0100704714F0030F3CD1EC
:1010700010F0030428D150F8082B51F8083B82FAED
:101080004CF582EA0305A5FA8CF55DB950F8042CFD
:1010900051F8043C82FA4CF582EA0305A5FA8CF576
:1010A000002DE8D02DBAB5FA85F424F0070423FA10
:1010B00004F122FA04F202F0FF0001F0FF01FDE862
:1010C0000445A0EB010070474FEAC40420F0030080
:1010D00050F8082B21F0030151F8083B0CFA04F4F6
:1010E00062EA040263EA0403C9E710F003041AD0B9
:1010F000A1EB040120F00300E40750F8042B06D014
:101100000FD28B785FFAA2F4E41A06D12BB1CB7818
:101110005FFAB2F4E41A00D11BB920465DF8104B17
:10112000704701F1040150F8042BCC0721F00301B2
:1011300051F8043B48D824D222F07F4482FA4CF57F
:1011400094EA1325A5FA8CF50AD165B951F8043B48
:1011500084EA0204B4EB036F0ED150F8042BEBE7E2
:101160004FEA132355E035F07F454DD10878FDE86F
:101170000445C0F1000070474FEA126203F0FF031C
:1011800047E002EA1C4482FA4CF594EA1345A5FABA
:101190008CF50AD165B951F8043B84EA0204B4EB3A
:1011A000034F0CD150F8042BEBE74FEA134330E028
:1011B00015EA1C4528D10B884FEA124229E04FEA74
:1011C000124203EA1C4324E002F0FF0482FA4CF5C9
:1011D00094EA1365A5FA8CF50AD165B951F8043B78
:1011E00084EA0204B4EB032F09D150F8042BEBE797
:1011F0004FEA13630DE015F0FF0F05D10B684FEABE
:10120000122223F07F4304E04FF00000FDE8044584
:10121000704712BA1BBA82FA4CF482EA0304A4FAA9
:101220008CF5B5FA85F402FA04F203FA04F34FEAF6
:101230001260FDE80445A0EB136070470000000059
:1012400090F800F06DE9024520F007016FF0000C06
:1012500010F0070491F820F040F049804FF00004AE
:101260006FF00700D1E9002391F840F000F1080089
:1012700082FA4CF2A4FA8CF283FA4CF3A2FA8CF3C1
:101280004BBBD1E9022382FA4CF200F10800A4FA28
:101290008CF283FA4CF3A2FA8CF3E3B9D1E904237C
:1012A00082FA4CF200F10800A4FA8CF283FA4CF3B3
:1012B000A2FA8CF37BB9D1E9062301F1200182FA6D
:1012C0004CF200F10800A4FA8CF283FA4CF3A2FA73
:1012D0008CF3002BC6D0002A04BF04301A4612BA81
:1012E000B2FA82F2FDE8024500EBD2007047D1E984
:1012F000002304F00305C4F100004FEAC50514F013
:10130000040F91F840F00CFA05F562EA05021CBFE3
:1013100063EA050362464FF00004A9E700000000FD
:1013200001F0FF01102A2BDB10F0070F08D010F896
:10133000013B013A8B422DD010F0070F42B3F6D19A
:10134000F0B441EA012141EA014122F007047FF0B3
:1013500000070023F0E80256083C85EA010586EA0A
:10136000010685FA47F5A3FA87F586FA47F6A5FA46
:1013700087F68EB9EED1F0BC01F0FF0102F0070252
:1013800032B110F8013B013A83EA010313B1F8D1FD
:101390000020704701387047002D06BF35460338DE
:1013A000073815F0010F07D1013015F4807F02BF17
:1013B000013015F4C03F0130F0BC0138704700BF68
:1013C0004FF0FF3C06E000BF4FF0010C02E000BF11
:1013D0004FF0010C4DF804CD4FEA410C7FEA6C5CF4
:1013E0004FEA430C18BF7FEA6C5C1BD001B050EA97
:1013F000410C0CBF52EA430C91EA030F02BF90EA82
:10140000020F0020704710F1000F91EA030F58BF40
:10141000994208BF90422CBFD8176FEAE37040F0A2
:10142000010070474FEA410C7FEA6C5C02D150EA40
:10143000013C07D14FEA430C7FEA6C5CD6D152EAFB
:10144000033CD3D05DF8040B704700BF84461046C0
:1014500062468C461946634600E000BF01B5FFF7BF
:10146000B7FF002848BF10F1000F01BD4DF808ED8F
:10147000FFF7F4FF0CBF012000205DF808FB00BF60
:101480004DF808EDFFF7EAFF34BF012000205DF8BA
:1014900008FB00BF4DF808EDFFF7E0FF94BF012007
:1014A00000205DF808FB00BF4DF808EDFFF7CEFF08
:1014B00094BF012000205DF808FB00BF4DF808ED47
:1014C000FFF7C4FF34BF012000205DF808FB00BF18
:1014D0004FEA410C7FEA6C5C02D150EA013C0AD130
:1014E0004FEA430C7FEA6C5C02D152EA033C02D122
:1014F0004FF0000070474FF00100704700000000FF
:101500002DE9F04FDFF860B3D04ADBF81830D0494E
:101510009961B1B000231268CE49CF482F921C4682
:101520000493CDE92A332C93ADF8A4308DF8233001
:10153000CDE92D33029301F083FBDFF8249305906E
:10154000079401940394202383F3118802F010FE82
:1015500001F096FDDBF82830009301F0B1FD02F0B8
:101560001FFEDBF800305B4508D0DBF818209B68D5
:1015700092689A4202D2B94801F0E2FC002383F358
:10158000118800F07DFF0546002800F0C78008287C
:1015900040F0B080802209A9059801F0B9FB049BB6
:1015A00033B9D9F80030AE485B6804222BA99847BC
:1015B000002001F06DF98046012001F069F907462D
:1015C000022001F065F90646052001F061F90546A3
:1015D000062001F05DF90446072001F059F948F3AF
:1015E00007238DF8B13047F3072246F3072345F36D
:1015F00007218DF8B3208DF8B46044F307228DF8ED
:10160000B53040F30726D9F800308DF8B6508DF884
:10161000B7108DF8B8408DF8B9208DF8BA008DF864
:10162000B0808DF8B2708DF8BB601B688C480C22BE
:101630002CA99847D9F8003089485B6804222AA968
:1016400098479DF8AB109DF8AA009DF8A9209DF839
:10165000A840844B40EA012000B244EA02249842A8
:1016600024B2B8BF184640F24C459C42B8BF1C4655
:10167000A842A8BF284600F0BBFEAC422046A8BF47
:10168000284600F08DFE039B012B00F02181C0F065
:101690000681022B17D10022114610460A2300F0C2
:1016A000B7FA002211460A23012000F0B1FA002205
:1016B00011460A23039800F0ABFA002211460A23D0
:1016C000032000F0A5FA019B0133DBB2642B0193E8
:1016D00000F05581029B01339BB2B3F5FA6F029380
:1016E00000F03881009800F10A0102F041FA01236C
:1016F000049328E7D9F8003059485B680DF12301BD
:1017000001229847022000F0ABFAD9F80030544883
:101710001B6801220DF12301984714E7802209A9D3
:10172000059801F0F5FA284601F0B2F8804601204C
:1017300001F0AEF80646022001F0AAF8074605209F
:1017400001F0A6F80690062001F0A2F80446072052
:1017500001F09EF848F30722D9F800308DF8A480F4
:101760008DF8A52029A9022282461B683C4898478B
:10177000B600069B7F0006EBC808BFB25E001FFAEA
:1017800088F807F22620A400B6B2404404EBCA0A47
:101790001FFA8AFA801B06F22626A0EB0A00B24442
:1017A000AAEB070700B2A7EB080800F021FE0FFA2A
:1017B00088F000F0F5FD039B012B57D02DD3022BB1
:1017C00017D10A232A462946284600F021FA0A237F
:1017D0002A462946012000F01BFA0A232A462946F8
:1017E000039800F015FA0A232A462946032000F040
:1017F0000FFA019B0133DBB2642B019300F096805A
:10180000029B01339BB2B3F5FA6F029379D0009833
:1018100000F10A0102F0ACF995E62B462A4628466B
:101820000A2100F0F5F92B462A460A21012000F092
:10183000EFF92B462A460A21022000F0E9F92B464F
:101840002A460A21032000F0E3F9D2E7000800202D
:10185000C0DF000800E0000818120020D0DF0008F8
:10186000C02C0020B4FBFFFF901E00202B46294611
:1018700028460A2200F0CCF92B46294603980A2272
:1018800000F0C6F92B4629460A22022000F0C0F9D2
:101890002B4629460A22032000F0BAF9A9E70023C3
:1018A0001A4618460A2100F0B3F900231A460A2105
:1018B000012000F0ADF900231A460A21022000F0B1
:1018C000A7F900231A460A21032000F0A1F9FAE63D
:1018D0000023194618460A2200F09AF900231946F7
:1018E00003980A2200F094F9002319460A220220E4
:1018F00000F08EF9002319460A22032000F088F92F
:10190000E1E6079A284901325308A1FB03139B081B
:10191000C3EBC303A2EB43030022D8B211469BB230
:10192000079300F02DF90023029370E7039A1F4BF1
:101930000132A3FB02135B0803EB4303D31ADBB2B0
:101940000220039300F08CF9022000F0A9F9002393
:10195000019355E7079A144901325308A1FB031379
:101960009B08C3EBC303A2EB43030022D8B211468A
:101970009BB2079300F004F900230293B2E6039AA6
:101980000A4B0132A3FB02135B0803EB4303D31A98
:10199000DBB20220039300F063F9022000F080F92B
:1019A0000023019396E600BF93244992ABAAAAAA0A
:1019B00000B5114B85B01B68039303F071FC01F077
:1019C00057FA00F0EDF90D4A0D490E4801F0C0F844
:1019D00000F046FC00F00CFF00F0A2FF0023009393
:1019E00009480A4B40224FF4AF6102F029F84FF446
:1019F0007A7002F07DF8FAE7000800200408002061
:101A00000C080020181200202812002001150008E0
:101A100000B5084B83B01A680192019A1B689A427C
:101A200005D1054803B05DF804EB01F089BAFFF772
:101A3000EFFF00BF00080020E0DF0008000000000A
:101A400030B5104D81682B680F4A83B001930B6845
:101A500023F001030B608168946A03E0936A1B1B07
:101A6000C72B09D8086810F00100F7D1019A2B683C
:101A70009A4204D103B030BD4FF0FF30F6E7FFF7D4
:101A8000C7FF00BF00080020901E002000000000DB
:101A9000F0B5284D83B02B68019302F031FB01F0C3
:101AA0006FFB254B1E69F20715D55A69234C42F08E
:101AB00001025A612778BB1F012B2AD905226368CE
:101AC00022701B680BB120469847042F27D0022FA5
:101AD00025D003232370B30710D5174A174C536939
:101AE00043F0020353612378032B1DD06368DB6846
:101AF0000622227013B101211048984701F068FBBB
:101B0000019A2B689A4213D103B0BDE8F04003F06C
:101B100087BB019A2B689A420AD103B0F0BD022319
:101B20002370B307EAD5D8E72046FFF789FFDDE742
:101B3000FFF76EFF0008002000000550A0170020EE
:101B400010B50B4C0B48236882B0019302F010FDD6
:101B5000094802F0EDFE019A23689A4205D1054832
:101B600002B0BDE8104002F03BBDFFF751FF00BFDF
:101B7000000800202C08002024080020000000009D
:101B800030B51E4C85B0236803930F2815D00E285E
:101B900015D81B4A00EB400002EB8002194803688D
:101BA00099B963B103992368174D012499422C70A8
:101BB00008BF114617D0FFF72BFF002AEED1039A7A
:101BC00023689A42F7D105B030BD02290E4D04BFFB
:101BD0000021297063B1039923680120994228707C
:101BE000E9D10848114605B0BDE8304002F0E8B838
:101BF0000192FFF7A5FF019AEDE700BF0008002062
:101C000010E50008B41700202008002000000000A4
:101C10002DE9F0410E4D82B02C68019488460446AF
:101C200017461E4600F0BCFE08B900F0A1FE094AA6
:101C30000198296804EB44041319884202F80480CF
:101C40005F709E7002D102B0BDE8F081FFF7E0FE48
:101C500000080020B817002000000000000000006D
:101C600000B50D4B83B01A68019201280BD90B49BE
:101C70004A6982F004024A61019A1B689A4209D1BA
:101C800003B05DF804FB054A042108B95183F3E76A
:101C90001183F1E7FFF7BCFE0008002000040240BA
:101CA00000B50E4B83B01A68019201280BD90C497C
:101CB0004A6982F480424A61019A1B689A420AD1B9
:101CC00003B05DF804FB064A4FF4804108B9518324
:101CD000F2E71183F0E7FFF79BFE00BF000800204A
:101CE000000C0240000000000000000000000000A6
:101CF0002DE9F043254E83B034680194042A9DF801
:101D00002890144605460F46984639D9B9F1000F78
:101D100014BF00224FF08052640002EB0863013CC4
:101D20001C4405F00F0527F01F07202383F31188BB
:101D300002F01EFA3D4301F0A3F9154B1035DD60AA
:101D40001C6101F0BDF902F02BFA124B1A689A429D
:101D500004D0996993688A689A420DD3002383F36B
:101D60001188BFF36F8FBFF34F8F019A33689A4288
:101D70000AD103B0BDE8F083074801F0E1F8EDE7D0
:101D8000064801F0DDF8C1E7FFF742FE0008002039
:101D900090ED00E0901E0020D0F20008B0F20008A4
:101DA00030B5224D224C2B68224A85B003936368DC
:101DB00043F004036360536A43F480335362202387
:101DC00083F3118802F0D4F901F05AF917221A4B63
:101DD000E260236101F074F902F0E2F9174B1A682E
:101DE0009A4204D0996993688A689A4218D300206D
:101DF00080F31188BFF36F8FBFF34F8F03231D2232
:101E000000904FF00051FFF773FF094A536843F009
:101E100001035360039A2B689A4205D105B030BD87
:101E2000074801F08DF8E2E7FFF7F2FD0008002017
:101E300090ED00E000ED00E009000010901E002091
:101E4000D0F20008000000000000000000000000C8
:101E500070B51A4D1A4C1B4E0FCD0FC49EB02A6898
:101E6000336822801D93EFF30981682203A8FEF7EF
:101E7000D7FF154B9D6AAA0714D4EB0708D5124B60
:101E800008995B6B114A00910D48802108F0E0FE33
:101E90001D9A33689A420FD109481EB0BDE87040C0
:101EA00001F04EB8099A5B6B0092A4F11000084A49
:101EB000802108F0CDFEE0E7FFF7AAFD94F20008CC
:101EC000C41700200008002000ED00E070F20008B8
:101ED00050F20008000000000000000000000000B8
:101EE00000B51F4B0278196883B00191E2B11D4A19
:101EF0004FF4005111834278EAB11A4A4FF48051ED
:101F000011838278F2B1174A4FF480411183C2786D
:101F1000FAB9144A4FF400415183019A1B689A425E
:101F20001CD103B05DF804FB0E4A4FF400515183FD
:101F30004278002AE1D10B4A4FF4805151838278D4
:101F4000002AE0D1074A4FF480415183C278002A29
:101F5000DFD0044A4FF400411183DEE7FFF758FD5C
:101F600000080020001002400000000000000000F7
:101F700000B51F4B0278196883B00191E2B11D4A88
:101F80004FF4007111834278EAB11A4A4FF480711C
:101F900011838278F2B1174A4FF400611183C2783D
:101FA000FAB9144A4FF480615183019A1B689A422E
:101FB0001CD103B05DF804FB0E4A4FF4007151834D
:101FC0004278002AE1D10B4A4FF480715183827824
:101FD000002AE0D1074A4FF400615183C278002AF9
:101FE000DFD0044A4FF480611183DEE7FFF710FD74
:101FF0000008002000100240000000000000000067
:1020000030B50C4A0C4B116883B04FF40055019168
:102010004FF480544FF400414FF480405D835C8363
:102020005883598301991368994201D103B030BD97
:10203000FFF7EEFC00080020001002400000000046
:1020400030B50C4A0C4B116883B04FF40075019108
:102050004FF480744FF480614FF400605D835C83C3
:102060005883598301991368994201D103B030BD57
:10207000FFF7CEFC00080020001002400000000026
:1020800010B50B4C0B48236882B0992200210193B4
:1020900003F0DEFC019A23689A4206D1054800212C
:1020A00002B0BDE8104003F0BBBDFFF7B1FC00BFBC
:1020B000000800206C2C0020000000000000000040
:1020C00010B50B4C0B48236882B099220021019374
:1020D00003F0BEFC019A23689A4206D1054800210C
:1020E00002B0BDE8104003F09BBDFFF791FC00BFBC
:1020F00000080020882C00200000000000000000E4
:1021000000B5084B83B01A680192019A1B689A4285
:1021100006D10548002103B05DF804EB03F0E8BCEC
:10212000FFF776FC000800206C2C00200000000067
:1021300000B5084B83B01A680192019A1B689A4255
:1021400006D10548002103B05DF804EB03F0D0BCD4
:10215000FFF75EFC00080020882C00200000000033
:1021600070B51A4C1A4E2378326882B0022B019255
:10217000A26811D165781748013505F0070500EB15
:102180008500904763686570013B6360019A33681E
:102190009A4219D102B070BD012B08D00199336861
:1021A000994211D10C4802B0BDE8704010476578E3
:1021B0000848013D05F0070500EB8500904763687E
:1021C000657001336360E1E7FFF722FC60180020CF
:1021D0000008002070F3000860F300080000000011
:1021E00070B51A4C1A4E2378326882B0012B0192D6
:1021F000A26811D165781748013505F0070500EB95
:10220000850090476368657001336360019A3368A5
:102210009A4219D102B070BD022B08D001993368DF
:10222000994211D10C4802B0BDE870401047657862
:102230000848013D05F0070500EB850090476368FD
:102240006570013B6360E1E7FFF7E2FB44180020A3
:102250000008002070F3000860F300080000000090
:1022600070B51D4E1D4A1E4B30681E491E4C9160B4
:1022700082B00021D46001901C4C1D481D4D9D6012
:10228000117051705160106154611B481B4A1C4D04
:10229000D8601C48197059705960C3E90425FFF7CC
:1022A0001FFE1848FFF764FE1749204603F038FB6D
:1022B000204603F06DFC2846144903F031FB019AD7
:1022C00033689A4205D1284602B0BDE8704003F059
:1022D0005FBCFFF79DFB00BF0008002060180020D6
:1022E00044180020E11E0008812000086C2C00200A
:1022F00001210008711F0008C120000831210008D9
:10230000882C002060F3000820F30008E0F20008A9
:1023100030B5204D85B02B68039340F24C43994271
:10232000044628DCA3F69803994212DB4B00002BED
:1023300081612BD10370036998474FF47A71039A36
:102340002B689A4220D1606905B0BDE8304003F0A7
:1023500037BB8361104B02225B42227040F289221C
:1023600093420E4991FBF3F189B208DC0191E368D5
:1023700098470199E3E70122836102702D210191C1
:10238000236998470199DAE7FFF742FBE3DD012271
:102390000270E3E70008002068F7FFFFA086010055
:1023A00030B50E4C83B023680193054600F0D8FC8D
:1023B000019A236840B99A420ED10948294603B0D0
:1023C000BDE83040FFF7A4BF9A4205D1284603B0CC
:1023D000BDE8304000F0DCBCFFF71AFB000800202D
:1023E0004418002000000000000000000000000071
:1023F00030B50E4C83B023680193054600F0B0FC65
:10240000019A236840B99A420ED10948294603B07F
:10241000BDE83040FFF77CBF9A4205D1284603B0A3
:10242000BDE8304000F0CCBCFFF7F2FA0008002015
:102430006018002000000000000000000000000004
:102440000A490B4B09680B4A82B0202001914021B8
:1024500058834FF4806559834FF400644FF48040F3
:1024600004215D835C8358835183FEE700080020CC
:10247000000C0240000402400000000000000000C8
:1024800030B5104C104B2268104983B00192186986
:102490001A6909691B69019D2468C2F3C032C1F33E
:1024A000001102EB4102C3F38033C0F3403003EB71
:1024B0004203A54200EB430001D103B030BDFFF75A
:1024C000A7FA00BF0008002000080240000C0240EC
:1024D00010B51E491E4A0B78106882B0013B01906E
:1024E000072B0AD8DFE803F012151C1F26290F045A
:1024F00018480824012304830B700199136899423A
:1025000021D102B010BD08230B70F6E702230B7037
:10251000F3E711484FF48054032304830B70ECE776
:1025200004230B70E9E70C484FF48044052304832F
:102530000B70E2E706230B70DFE70648042407234D
:1025400004830B70D9E7FFF763FA00BF001C00207B
:1025500000080020001002400004024000000000BB
:1025600030B50C4B0C4918680C4A83B04FF48045C9
:1025700001904FF480504883042408204D835483F5
:102580005083019A1B689A4201D103B030BDFFF716
:102590003FFA00BF00080020000402400010024083
:1025A0002DE9F04F594D5A4AAB695A4E9A61A3B082
:1025B00002AB802204AC30680092CDE902331A46A7
:1025C000554B2190214609A8CDE904440024CDE9CA
:1025D000064408941C4600F0D3FA09A94F4A504813
:1025E000DFF860B100F0F4FA04F11C08AB6993F86D
:1025F000219019F004096FD14A4801F059FE4A4B65
:102600004A4819691F681A6AA260C4E900711F6B01
:102610005969E7605F685A6AA261C4E904715F6B37
:10262000E7619F6B99699A6AE7629F6827626162B6
:10263000DF68D969A262DA6ADB6B61632763E363EF
:102640004946A263426A50F8043F9A4296BF9B1AD9
:10265000016403644045F5D18022214609A800F0B9
:1026600017FBDFF8E4C09CF80030002BBED0DFF889
:10267000DCA09AF80090B9F1000F34D0B9F1010F45
:10268000B4D12B4ADFF8C8E002F12009714652F8B4
:10269000040B51F8043F4A4503440B60F7D1254A27
:1026A00013780133DBB2642B13709FD1224A234885
:1026B0005EF8043F8BFB0371DB17C3EB61137045BE
:1026C00042F8043BF4D100238CF80030AB6993F856
:1026D000219019F004098FD0219A33689A4213D1BE
:1026E00023B0BDE8F08F20224946134808F060FA75
:1026F00020224946124808F05BFA0E4A012382F86C
:1027000000908AF8003071E7FFF782F9901E0020F0
:1027100090F30008000800200419002000E00008E1
:1027200018120020400800209C18002000190020EA
:1027300044190020DD18002064190020FC18002036
:10274000E01800201F85EB51DC180020DE18002067
:10275000DC18002000000000000000000000000065
:1027600070B502691E4D52882B6882B006460C4631
:102770001C4801939200002108F01AFA33695B8823
:102780005BB1184AA11E002331F8020F42F8040B76
:102790003069408801339842F6D8202383F31188AA
:1027A00001F016FD00F0ACFC00F03AFD0E48836825
:1027B000002B0FDD00F0C4FC01F022FD002383F3A9
:1027C0001188019A2B68094901209A42087004D1A6
:1027D00002B070BD01F0A4FDECE7FFF719F900BFEE
:1027E000000800209C18002040080020001C002049
:1027F00070B51E4E1E4C3578236884B0012D0393AE
:1028000005D0039A23689A422ED104B070BD0021EE
:10281000304602F05DFE2B46164A1749304602F05C
:10282000D7FE1649164803F07BF84FF49672002144
:10283000134803F00DF90021114803F0F1F9104895
:1028400003F0A6F929464FF482720D4803F000F90F
:10285000002300930B480C4B40224FF41E7101F0F3
:10286000EFF80A4B1860CCE7FFF7D2F830250020CC
:10287000000800207C180020A0F30008D0F3000816
:10288000502C002088190020A125000800190020E4
:1028900010B50E4A82B013680193072811D80C496D
:1028A00000F1180300F1100451F8233051F824000E
:1028B000C01A20EAE07001991368994203D102B06E
:1028C00010BD0020F7E7FFF7A3F800BF00080020C5
:1028D00004190020000000000000000000000000BB
:1028E00000B50A4B0A481B680A4C87B06946059335
:1028F00001224FF4F07302F053F8012002F038F98E
:10290000684602F095F82060F7E700BF0008002055
:10291000C42C0020041C0020000000000000000067
:1029200010B50C4C0C4923680C4884B0039303F099
:102930005FFE002300934022094B0A484FF41E71AA
:1029400001F07EF8039A23689A4201D104B010BDC9
:10295000FFF75EF8000800204C080020C02C002083
:10296000E1280008081C0020000000000000000012
:1029700000B5084B08491A6883B001200192019AFA
:102980001B6808709A4202D103B05DF804FBFFF7A0
:102990003FF800BF00080020801E0020000000005B
:1029A00000B5074B07491A68087883B00192019A6D
:1029B0001B689A4202D103B05DF804FBFFF728F8C8
:1029C00000080020801E0020000000000000000021
:1029D00000B5084B83B01A680192019A1B689A42AD
:1029E00005D1054803B05DF804EB01F0C1BDFFF768
:1029F0000FF800BF00080020580800200000000069
:102A000000B5084B83B01A680192019A1B689A427C
:102A100005D1054803B05DF804EB01F0E1BDFEF718
:102A2000F7FF00BF00080020580800200000000049
:102A300070B50D4C82B0236801930D1E06460DDD66
:102A4000284602F065FB18B90C2333604FF0FF30C5
:102A5000019A23689A4205D102B070BD034800F084
:102A60006FFAEDE7FEF7D4FF0008002010F400082D
:102A700000B5064B83B01A680192019A1B689A420E
:102A800002D103B05DF804FBFEF7C2FF000800208E
:102A900000B5074B83B01A680192019A1B689A42ED
:102AA00004D103B05DF804EB01F062BDFEF7B0FFA6
:102AB00000080020000000000000000000000000EE
:102AC00000B5074B83B01A680192019A1B689A42BD
:102AD00004D103B05DF804EB01F082BDFEF798FF6E
:102AE00000080020000000000000000000000000BE
:102AF00000B5074B83B01A680192019A1B689A428D
:102B000004D103B05DF804EB01F092BEFEF780FF44
:102B1000000800200000000000000000000000008D
:102B200000B5074B83B01A680192019A1B689A425C
:102B300004D103B05DF804EB01F0FABEFEF768FFC4
:102B4000000800200000000000000000000000005D
:102B500030B5084C83B02368019300230360019DC6
:102B600024684360A542C0E9021201D103B030BD20
:102B7000FEF74EFF000800200000000000000000EB
:102B80002DE9F0430E4D83B02C680194044699461C
:102B90000F461646103050220021DDF8288008F03C
:102BA00007F8C4F80090019A2B68E6609A42C4E9DD
:102BB000018702D103B0BDE8F083FEF729FF00BF13
:102BC00000080020000000000000000000000000DD
:102BD000F0B5194F83B001F1100314463A68019221
:102BE0000546412218460E46002107F0E1FF214626
:102BF000402208F075F8A868FFF74AFF2B6803B178
:102C0000B3656C682E603CB1D4E900323146284689
:102C10009847A468002CF7D1E868FFF769FF019A8C
:102C20003B689A4205D1A86803B0BDE8F040FFF7C1
:102C300047BFFEF7EDFE00BF0008002000000000C7
:102C4000F0B5124F83B006463B68806801930D468D
:102C5000FFF71EFF346814B912E0A46D84B104F1CB
:102C600010012846FEF780F90028F6D1B068FFF77A
:102C700027FF019A3B689A42204605D103B0F0BD78
:102C8000F068FFF74DFFE5E7FEF7C2FE0008002001
:102C9000F0B51C4E436883B00546934230680190FE
:102CA00006D20020019A33689A4229D103B0F0BDC0
:102CB00014460F46A868FFF7EBFE224639462868FF
:102CC000FEF7AEF8012385F85130E868FFF710FFF2
:102CD0006C6D84B123681868FFF7DAFE23689D6085
:102CE00023685868FFF704FF23681868FFF7E8FEB9
:102CF0006468002CEED1A868FFF7E2FE0120D1E75E
:102D0000FEF786FE00080020000000000000000022
:102D1000F0B50F4D83B004462B68806801930E46D2
:102D20001746FFF7B5FEE068FFF7FAFE3A46304671
:102D30002168FEF775F8019A2B689A4205D1A068C0
:102D400003B0BDE8F040FFF7BBBEFEF761FE00BF79
:102D5000000800200000000000000000000000004B
:102D600000B5074B07491A68087883B00192019AA9
:102D70001B689A4202D103B05DF804FBFEF748FEDF
:102D800000080020811E002000000000000000005C
:102D900000B5074B07491A68086083B00192019A91
:102DA0001B689A4202D103B05DF804FBFEF730FEC7
:102DB00000080020841E0020000000000000000029
:102DC00000B5074B07491A68086083B00192019A61
:102DD0001B689A4202D103B05DF804FBFEF718FEAF
:102DE00000080020881E00200000000000000000F5
:102DF00000B5064B83B01A680192019A1B689A428B
:102E000002D103B05DF804FBFEF702FE00080020CB
:102E100000B5064B83B01A680192019A1B689A426A
:102E200002D103B05DF804FBFEF7F2FD00080020BC
:102E3000024B82B01B680193FEE700BF0008002030
:102E400000B5044B04481B6883B0019300F078F888
:102E5000FEE700BF0008002020F40008000000008A
:102E6000024B82B01B680193FEE700BF0008002000
:102E7000F0B5294E294B3268294885B000240392C9
:102E80009C60D968274A4FF6FF0529400A43DA605B
:102E9000C2682549254D42F08072C2600A6842F03E
:102EA00001020A6010202022D87783F8222000F047
:102EB000DFFA00F045FA01F0ABF802F001F902F098
:102EC0006FF901F0FDF800F0FBF9402105F588608D
:102ED00000F01EFD0127164BC36180F82070A86129
:102EE00000F0A6F884F3118862B6AB69114A9A61C2
:102EF0004FF4C4713A46104B009405F59D6000F004
:102F00009FFD039A33680D4981619A4201D105B052
:102F1000F0BDFEF77DFD00BF0008002000ED00E0E1
:102F2000F0ED00E00003FA05001000E0901E002024
:102F300000040020B0F50008612E000840F40008ED
:102F400000B5054B83B01B680193044672B6FFF7CA
:102F500077FA024BDC62FEE700080020901E00209A
:102F60002DE9F047DFF890A0224DDAF8003082B06A
:102F7000019300F055F9AB6993F8232012B1013A9F
:102F800083F823205A6ADFF8748001325A6200F015
:102F900047F9AB6AEA6901334245AB6220D09368D6
:102FA000013B9360EC69A668D6B94FF0200923680D
:102FB000E768E660C3F804802368EB6100F0C0F8BE
:102FC00001F01EF986F311882069B84789F311884A
:102FD00001F0FEF800F094F8EC69A368002BE6D04D
:102FE000019ADAF800309A4202D102B0BDE8F087C7
:102FF000FEF70EFD901E002000080020AC1E0020F1
:1030000010B5094C094A236882B00193516853688E
:103010005B1A9842FBD8019A23689A4201D102B008
:1030200010BDFEF7F5FC00BF00080020001000E016
:1030300000B50E4A0E4B116B186883B0019009B9A8
:10304000526B4AB1019A1B689A420CD1094803B0ED
:103050005DF804EBFFF774BF019A1B689A4202D136
:1030600003B05DF804FBFEF7D3FC00BF901E002008
:103070000008002050F400080000000000000000DC
:1030800030B50B4C0B4D236B2A6883B001920BB902
:10309000636B13B10848FFF753FF019A2B680121B6
:1030A0009A42616301D103B030BDFEF7B1FC00BFAD
:1030B000901E00200008002080F40008000000009E
:1030C00030B50C4C0C4D236B2A6883B0019253B978
:1030D000636B002B07DD019A2B6800219A42616324
:1030E00005D103B030BD0548FFF72AFFF3E7FEF72F
:1030F0008FFC00BF901E002000080020A0F40008F4
:1031000030B50B4C0B4D236B2A6883B0002B01921A
:1031100001DD636B13B10848FFF712FF019A2B68BA
:1031200001219A42616301D103B030BDFEF770FC0A
:10313000901E00200008002090F40008000000000D
:1031400030B50C4C0C4D236B2A6883B0002B0192D8
:103150000ADD636B002B07DD019A2B6800219A4280
:10316000616305D103B030BD0448FFF7E9FEF3E722
:10317000FEF74EFC901E002000080020B0F400086E
:1031800030B50F4D83B02B680193202383F3118852
:103190000C4C236B002B01DB626B1AB10A48FFF762
:1031A000CFFE236B01332363002383F31188019A3D
:1031B0002B689A4201D103B030BDFEF729FC00BF55
:1031C00000080020901E002060F4000800000000AD
:1031D00030B50F4D83B02B680193202383F3118802
:1031E0000C4C236B002B01DD626B1AB10A48FFF710
:1031F000A7FE236B013B2363002383F31188019A0D
:103200002B689A4201D103B030BDFEF701FC00BF2C
:1032100000080020901E002070F40008000000004C
:1032200000B50F4A0F4B116B186883B0002901904D
:1032300009DB526B002A06DD019A1B689A420CD109
:1032400003B05DF804FB019A1B689A4205D1064859
:1032500003B05DF804EBFFF773BEFEF7D9FB00BFC8
:10326000901E002000080020C0F4000800000000AC
:1032700000B50E4A0E4B116B186883B0019049B926
:10328000526B002A06DD019A1B689A420CD103B0EA
:103290005DF804FB019A1B689A4205D1054803B00A
:1032A0005DF804EBFFF74CBEFEF7B2FB901E00206A
:1032B00000080020D0F4000800000000000000001A
:1032C00010B5084A084B116882B040240191019959
:1032D000126818199142C3E90E4001D102B010BD25
:1032E000FEF796FB00080020901E00200000000062
:1032F00010B51149114B0A6882B00192DA6B9C6AD1
:103300001460DA6B9C695460DA6B846A9460DA6BDF
:1033100090F820001073DA6B03F588601032824257
:1033200028BF03F14002DA63019A0B689A4201D187
:1033300002B010BDFEF76CFB00080020901E0020BC
:1033400010B50B4A0B4B116882B04FF0FF3401915E
:1033500000219962019811685C6203F11C028842A5
:10336000C3E9072201D102B010BDFEF751FB00BF37
:1033700000080020901E0020000000000000000057
:103380002DE9F041184E82B00546306801900C4698
:1033900017469846FFF744FF05B3FFB1F4B1C5E9FE
:1033A00003781248C3699A68944204D91B68A41A26
:1033B0009A68A242FAD32B605A686A6015605D6011
:1033C000AC609968019D3268091B95424FF0FF344B
:1033D0009960446206D102B0BDE8F0810448FFF76D
:1033E000AFFDDCE7FEF714FB00080020901E002074
:1033F000E0F40008000000000000000000000000F1
:1034000030B5164D83B004462B680193FFF708FFD3
:10341000ECB1E368BBB12268A068936801990344EA
:103420009360D4E900231A6020682B680C4A656811
:10343000456099424FF000054FF0FF30E560506263
:1034400009D103B030BD0748FFF77AFDE3E705482F
:10345000FFF776FDDDE7FEF7DBFA00BF000800208E
:10346000901E0020F0F400080000000000000000A2
:1034700000B50A4A0A4B11681B6083B00020019115
:10348000019912685B609142C3E90433986002D1EC
:1034900003B05DF804FBFEF7BBFA00BF0008002094
:1034A000901E00200000000000000000000000004E
:1034B00030B5164D83B004462B680193FFF7B0FE7C
:1034C000ECB194F82030B3B10F2B14D00022A168D6
:1034D0000F4B84F820201B689A688A42FBD2236035
:1034E0005A686260146001992A685C6091422046C3
:1034F00009D103B030BD0748FFF722FDE6E70548D4
:10350000FFF71EFDDDE7FEF783FA00BF000800208D
:10351000901E002000F500080000000000000000E0
:1035200070B5204D82B02B6801930446202383F3AD
:10353000118800F04DFEFFF7E3FD94F82030072BD3
:1035400011D8DFE803F0161010230A04100AA66A47
:10355000FFF766FEB3680133B360D4E900231A6055
:10356000D4E900325A604FF0FF33A3622046FFF7E0
:103570009FFFFFF7E5FD00F043FE002383F3118872
:10358000019A2B689A420BD102B070BDA36A002247
:103590001A604FF0FF33A3622046FFF789FFE8E788
:1035A000FEF736FA000800200000000000000000CE
:1035B000F0B5194E194C336883B007460193FFF7F5
:1035C00057FEA569236885F82070142285F823200A
:1035D0001A68226001215460284683F82010A361F4
:1035E000FFF786FE2946A06900F0A2FDEFF30983EC
:1035F000EA69643B9A4202D90948FFF7A1FC019AA3
:1036000033689A4206D1A069294603B0BDE8F0406C
:10361000FCF756BEFEF7FCF900080020901E0020C3
:1036200010F500080000000000000000000000008D
:10363000F0B5154C87B0236805930E460746FFF793
:1036400017FE731C18D0114D114AAB6931466846FC
:10365000FFF796FE3846FFF7ABFFFFF7E1FD039B50
:1036600013B16846FFF7CCFE059A2368A9699A4210
:10367000886A06D107B0F0BD3846FFF799FF034DC1
:10368000F2E7FEF7C5F900BF00080020901E0020F9
:1036900021350008000000000000000000000000CC
:1036A000F0B51E4D1E4E2B6883B0044601930F46A5
:1036B000FFF7DEFDB069A7628368A2689A421DD950
:1036C000FFF7F6FE0123074684F82030B461FFF7C8
:1036D0000FFE3946204600F02BFDEFF30983FA690F
:1036E000643B9A4214D8019A2B689A4214D1394605
:1036F000204603B0BDE8F040FCF7E2BD019A2B681C
:103700009A4209D1204603B0BDE8F040FFF7D0BE91
:103710000448FFF715FCE6E7FEF77AF900080020F9
:10372000901E002010F500080000000000000000BE
:1037300010B50E490E4B8A69086892F823101C6870
:103740008068926882B0019449B9904234BF0020E9
:103750000120019A1B689A4206D102B010BD904226
:1037600094BF00200120F4E7FEF752F9901E0020DC
:103770000008002000000000000000000000000021
:1037800070B5184C184E2368A5691A6822605460F9
:10379000012283F8202082B01422316885F823208A
:1037A0002846A3610191FFF783FE2846FFF7A0FD9D
:1037B0002946A06900F0BCFCEFF30983EA69643B89
:1037C0009A4202D90948FFF7BBFB019A33689A4233
:1037D00006D1A069294602B0BDE87040FCF770BD73
:1037E000FEF716F9901E00200008002010F50008D2
:1037F00070B51C4D1C4E2A68AC6913682B60012102
:1038000082B05D60002082F82010AA613268A16851
:1038100084F82000019200E01B689A688A42FBD875
:1038200023605A686260204614605C60FFF760FDA8
:103830002146A86900F07CFCEFF30983E269643B50
:103840009A4202D90948FFF77BFB019A33689A42F2
:1038500006D1A869214602B0BDE87040FCF730BD32
:10386000FEF7D6F8901E00200008002010F5000892
:1038700010B50F4C82B023680193FFF7F9FCFFF7F6
:10388000CFFC0C4B1A689B6992689B689A42019A1C
:10389000236803D89A4208D102B010BD9A4204D1DD
:1038A00002B0BDE81040FFF7A3BFFEF7B1F800BFBC
:1038B00000080020901E0020000000000000000012
:1038C00000B50E4A0E4B9269196892F8232083B016
:1038D000019142B1019A1B689A420DD103B05DF883
:1038E00004EBFFF785BF019A1B689A4204D103B02D
:1038F0005DF804EBFFF744BFFEF78AF8901E002046
:10390000000800200000000000000000000000008F
:10391000F0B51A4A1A4D02610446816083B014233F
:1039200050692E68616484F8233002270023012146
:10393000278484F82210C4E90F3304F16801A361DD
:10394000019604F12C07636204F1500604F1300380
:1039500060610461C4E90C33E1613046E76254619F
:1039600000F0EEFA304600F00BFB019A2B689A4209
:1039700002D1204603B0F0BDFEF74AF8901E0020A9
:10398000000800200000000000000000000000000F
:1039900010B5094B82B01C680194884203D200F82C
:1039A000012B8142FBD1019A1B689A4201D102B0DE
:1039B00010BDFEF72DF800BF000800200000000039
:1039C0002DE9F043184E83B0346801940546DDF8C4
:1039D00028900C4617469846FFF722FC15B1B4F51F
:1039E000BC7F19D21148FFF7ABFAA4F16401294456
:1039F000E960C1F84080EB68019AC3F844903368ED
:103A0000E9680B4808669A420CD13946284603B04B
:103A1000BDE8F043FFF77CBF7F2FE3D8B8F1000F7C
:103A2000E3D1DFE7FDF7F4FF0008002060F50008B0
:103A3000D9020008000000000000000000000000A3
:103A40002DE9F04FDFF8A48087B0D8F80040DDF80A
:103A50004090059407468A46934600F1680604465E
:103A6000FF2504F8015BA642FBD107EB0A05A5423E
:103A700004D9552604F8016BA542FBD103932022FB
:103A800082F3118800F074FBFFF7FAFA039BCDF87C
:103A900000905A4651463846FFF792FF00210446EF
:103AA000FFF7FEFDFFF70CFB00F07AFB0D4B1A68E9
:103AB0009A4204D0996993688A689A420BD300238A
:103AC00083F31188059AD8F800309A42204606D12F
:103AD00007B0BDE8F08F0448FFF732FAEFE7FDF7D3
:103AE00097FF00BF901E002020F50008000800206E
:103AF00030B5184C83B0236801930546202383F327
:103B0000118800F035FBFFF7BBFA15B91248FFF733
:103B100017FA29460820FFF78BFDFFF7D1FA00F0CE
:103B20003FFB0E4B1A689A4204D0996993688A68E1
:103B30009A4208D3002383F31188019A23689A429A
:103B400005D103B030BD0648FFF7FAF9F2E7FDF7FB
:103B50005FFF00BF0008002030F50008901E002025
:103B600020F5000800000000000000000000000038
:103B7000F0B51C4F83B03B68019304460E462023EA
:103B800083F31188184D00F0F3FAFFF779FAA96A68
:103B9000331B0C1B9C4219D3FFF792FA00F000FB79
:103BA0002B68AB4204D0AA699B6892689A4209D3F9
:103BB000002383F31188019A3B689A4230460FD163
:103BC00003B0F0BD0948FFF7BBF9F1E7741A02D161
:103BD0000748FFF7B5F921460820FFF729FDDBE785
:103BE000FDF716FF00080020901E002020F50008B9
:103BF00030F5000800000000000000000000000098
:103C000070B5164B164E9C693268E36AA06282B0AA
:103C100004F12C05AB42019207D01A68E262184603
:103C2000FFF746FCE36AAB42F7D194F821309B07DB
:103C300005D1D4E904231A61D4E904325A610F2072
:103C4000FFF7B6FC019A33689A4205D1054802B0E5
:103C5000BDE87040FFF774B9FDF7DAFE901E002052
:103C60000008002070F500080000000000000000BF
:103C700030B50C4C83B0236801930546202383F3B1
:103C8000118800F075FAFFF7FBF9019A23689A4250
:103C900005D1284603B0BDE83040FFF7B1BFFDF7BE
:103CA000B7FE00BF00080020000000000000000078
:103CB000F0B50D4D0D4E03682A68B76983B0044610
:103CC000019213B10A48FFF73BF927600320BC6259
:103CD000FFF76EFC019A2B68B1699A42886A01D19C
:103CE00003B0F0BDFDF794FE00080020901E0020F8
:103CF00080F5000800000000000000000000000047
:103D0000F0B5124D04682B6883B00193B4B194F8F8
:103D10002030032B06460F460CD100233360019A56
:103D20002B68A7629A420FD1204603B0BDE8F0404D
:103D3000FFF7BEBB0648FFF703F9EEE7019A2B68D1
:103D40009A4201D103B0F0BDFDF762FE00080020E9
:103D500090F50008000000000000000000000000D6
:103D6000F0B5124D04682B6883B00193B4B194F898
:103D70002030032B06460F460CD100233360019AF6
:103D80002B689A4210D13946204603B0BDE8F04076
:103D9000FFF786BC0648FFF7D3F8EEE7019A2B68D9
:103DA0009A4201D103B0F0BDFDF732FE00080020B9
:103DB000A0F5000800000000000000000000000066
:103DC00070B5164C82B02368019305460E46202339
:103DD00083F3118800F0CCF9FFF752F931462846F9
:103DE000FFF7BEFFFFF76CF900F0DAF90C4B1A6829
:103DF0009A4204D0996993688A689A4208D300234A
:103E000083F31188019A23689A4205D102B070BDEC
:103E10000448FFF795F8F2E7FDF7FAFD00080020E7
:103E2000901E002020F500080000000000000000A7
:103E300030B5104A83B01368019381B10E4B019DD8
:103E40009B69186044685C60236012684360954217
:103E50000DD1042003B0BDE83040FFF7E9BB019964
:103E6000136899424FF0FF3001D103B030BDFDF728
:103E7000CFFD00BF00080020901E002000000000C1
:103E800070B5124D04682B6882B0A042019315D022
:103E900023680360586094F82030042B0E4602D04B
:103EA0000B48FFF74DF8019A2B68A6629A420BD196
:103EB000204602B0BDE87040FFF7FABA019A2B68BD
:103EC0009A4201D102B070BDFDF7A2FD00080020AA
:103ED00040F50008000000000000000000000000A5
:103EE0002DE9F041DFF850800468D8F8003082B046
:103EF000A042019313D00F4F05460E4623682B6056
:103F00005D6094F82030042B02D03846FFF718F893
:103F1000A6622046FFF7CCFA2C68A542EED1019AA2
:103F2000D8F800309A4202D102B0BDE8F081FDF726
:103F30006FFD00BF40F500080008002000000000F1
:103F400030B50B4B83B01A6801924FF0FF3202601C
:103F500001991A680024002300259142C0E9044514
:103F6000C0E90133C36001D103B030BDFDF750FD9E
:103F70000008002000000000000000000000000019
:103F800000B5084B084A196883B001915168019A3D
:103F90001B6881609A4202D103B05DF804FBFDF713
:103FA00037FD00BF00080020001000E00000000006
:103FB000F0B51449144B0A68846883B00192134A1F
:103FC0005B68D2F8A864C2681B1BD0E904450132C3
:103FD0009B1BC26042688360E61845F1000793426C
:103FE000C0E9046709D80268934238BF0360019AA8
:103FF0000B689A4203D103B0F0BD4360F7E7FDF7C9
:1040000007FD00BF00080020001000E0901E002007
:1040100030B5114D114C2B6889B04FF0FF3107932B
:10402000002300226846C4F8A834CDE90133039385
:104030000023CDE904230091FFF7A2FF6846FFF7B4
:10404000B7FF079A2B680299C4F8A8149A4201D1C5
:1040500009B030BDFDF7DCFC00080020901E0020F8
:104060002DE97048134E144B326883B001925B689F
:104070008B60D0E902411B1BD0E90445426814EB78
:10408000030B45F1000C01319342C0E90231C0E954
:1040900004BC0AD80268934238BF0360019A3368AF
:1040A0009A4204D103B0BDE870884360F6E7FDF79B
:1040B000AFFC00BF00080020001000E0000000007E
:1040C00030B50D4D0D4C2B6883B004F5976001930E
:1040D0000023C4F8B034C4F8B434FFF731FF019AB8
:1040E0002B689A4206D104F59A6003B0BDE83040CF
:1040F000FFF726BFFDF78CFC00080020901E002073
:1041000000B50949094A0B6883B001930198D2F8B8
:10411000B034096801338842C2F8B03402D103B028
:104120005DF804FBFDF774FC00080020901E0020E1
:1041300070B50D4C0D4A236882B00193019DD2F8F1
:10414000B43424680133A542C2F8B43409D10E4610
:1041500000F1500106F1500002B0BDE87040FFF7D9
:104160007FBFFDF755FC00BF00080020901E002017
:1041700000B5084B83B01A680192019A1B689A42F5
:1041800005D1054803B05DF804EBFFF7F9BEFDF774
:104190003FFC00BF00080020482300200000000072
:1041A00000B5084B83B01A680192019A1B689A42C5
:1041B00005D1054803B05DF804EBFFF7F9BEFDF744
:1041C00027FC00BF0008002048230020000000005A
:1041D00000B5084B83B01A680192019A1B689A4295
:1041E00005D1054803B05DF804EBFFF7C9BEFDF744
:1041F0000FFC00BF0008002060230020000000002A
:1042000000B5084B83B01A680192019A1B689A4264
:1042100005D1054803B05DF804EBFFF7C9BEFDF713
:10422000F7FB00BF00080020602300200000000012
:1042300070B51B4D82B004462B680193FFF718F848
:1042400044B3A3682268002B10DBA24203D01548B8
:10425000FEF776FEA368013B002BA3600CDB002079
:10426000019A2B689A4219D102B070BDA242EED0D9
:10427000013B002BA360F2DA0B4EB3699C621C6019
:1042800062685A60052013606360FFF791F9B369B3
:10429000986AE5E70348FEF753FED2E7FDF7B8FB5F
:1042A00000080020E0F50008901E0020000000003B
:1042B00030B5164C83B0236801930546202383F361
:1042C0001188FFF755FFFEF7DBFE2846FFF7B0FF2A
:1042D0000546FEF7F5FEFFF763FF0D4B1A689A429D
:1042E00004D0996993688A689A4209D3002383F3BA
:1042F0001188019A23689A42284605D103B030BD3F
:104300000448FEF71DFEF1E7FDF782FB00080020E0
:10431000901E0020D0F50008000000000000000002
:1043200030B51C4D83B004462B680193FEF778FF2F
:104330004CB3A3682268002B0FDBA24203D01648BF
:10434000FEF7FEFDA3680133002BA3600BDD019A8D
:104350002B689A421BD103B030BDA242EFD001338B
:10436000002BA360F3DC20680199036823602A68AE
:104370005C6091424FF00003836208D103B0BDE856
:104380003040FFF795B80448FEF7DAFDD1E7FDF7B6
:104390003FFB00BF00080020F0F50008000000000F
:1043A00030B50B4D83B02B680193044650B12460A7
:1043B00001992A68646000239142A360236105D1BA
:1043C00003B030BD0348FEF7BBFDF0E7FDF720FB6F
:1043D0000008002010F600080000000000000000A7
:1043E000F0B55D4E5D4B32689D6983B00446019225
:1043F000FEF73EFF002C00F08480A06823690028AF
:1044000043D0002B40F39780854276D0AA6883681A
:104410009A4208D990F820308260062B40D0072BB2
:1044200073D0002B5DD02746234603E09968AA6825
:10443000914233D31B689C42F8D12F607B686B603C
:1044400006201D607D60AC62FFF7B2F8A368AB4246
:1044500002D04348FEF774FD2B6CA34202D04048C3
:10446000FEF76EFD2369012B05D1019A33689A424C
:104470006FD103B0F0BD019A33689A4269D13848D0
:1044800003B0BDE8F040FEF75BBD002B58D101330F
:10449000A56023612B6CE3602C64E6E71F46CCE744
:1044A000D0E900231A60D0E900325A60876A3B469F
:1044B00003E099688268914247D31B689F42F8D114
:1044C00007607B68436018607860836AAA689868B0
:1044D00083689342A7D290F820308260062B9ED149
:1044E000DEE7D0E90023012180F820101A60D0E92E
:1044F00000325A60FEF7DCFF95E723690133236140
:10450000B3E71748FEF71CFD77E7D0E900231A60F0
:10451000D0E900325A60876A3B4603E099688268B6
:10452000914214D31B689F42F8D107607B684360B7
:104530001860786077E70A48FEF702FDA06863E735
:104540000748FEF7FDFC2369A1E71F46B8E71F46B1
:10455000EBE7FDF75DFA00BF00080020901E002089
:1045600020F600080000000000000000000000002D
:1045700030B5154C83B0236801930546202383F39F
:104580001188FFF7F5FDFEF77BFD2846FFF728FFB2
:10459000FEF796FDFFF704FE0C4B1A689A4204D012
:1045A000996993688A689A4208D3002383F3118833
:1045B000019A23689A4205D103B030BD0448FEF742
:1045C000BFFCF2E7FDF724FA00080020901E00204F
:1045D00000F60008000000000000000000000000DD
:1045E0002DE9F043DFF800813C4FD8F80030BE6978
:1045F00083B005460193002864D0202383F31188FB
:10460000FFF7B6FDFEF73CFD336C002B5ED09B68D8
:10461000B34202D03248FEF793FC2B69002B49DDF0
:10462000013B2B615BBB336CAB4202D02C48FEF7E5
:1046300087FCEB683364FEF71BFE2B689D423ED07F
:10464000D6E910495CB1FEF713FE23689C4203D003
:104650009B68994538BF9946E468002CF3D1C6F8A9
:1046600008902B6801222A611A682A605560AB60A5
:104670001A6CEA6018461D640021FFF711F8FEF776
:104680001FFDFFF78DFD3B68BB4204D0BA699B68F4
:1046900092689A420AD3002383F31188019AD8F8CA
:1046A00000309A4217D103B0BDE8F0830D48FEF701
:1046B00047FCF0E70A48FEF743FC2B69B0E700230C
:1046C000AB60DCE70648FEF73BFC96E70448FEF7E4
:1046D00037FC336C9BE7FDF79BF900BF901E002071
:1046E00030F6000800F60008000800200000000076
:1046F0002DE9F041DFF8D880334BD8F800209E69CF
:1047000082B005460192FEF7B3FD002D4FD0336C09
:10471000002B52D09B68B34202D02C48FEF710FC0D
:104720002B69002B3EDD013B2B61002B32D1336C1A
:10473000AB4202D02548FEF703FCEB683364FEF77A
:1047400097FD2B689D4223D0D6E910475CB1FEF758
:104750008FFD23689C4203D09B689F4238BF1F4651
:10476000E468002CF3D1B7602868019901232B611C
:1047700003682B60D8F800205D60A860036CEB60D4
:10478000914205641ED102B0BDE8F041FEF790BE33
:104790000023AB60019AD8F800309A4212D102B0DF
:1047A000BDE8F0810948FEF7CBFB2B69BBE7074862
:1047B000FEF7C6FB336C002BACD10448FEF7C0FB00
:1047C000336CA7E7FDF724F9901E002040F600089F
:1047D00000080020000000000000000000000000B1
:1047E00070B5114E82B0044633680193FEF718FD90
:1047F0009CB12068A0420AD06FF0010503682360D5
:104800005C60FEF755FE85622068A042F6D1019AF1
:1048100033689A4205D102B070BD0448FEF790FBA0
:10482000E7E7FDF7F5F800BF0008002060F6000894
:1048300030B5164C83B0236801930546202383F3DB
:104840001188FFF795FCFEF71BFC2846FFF7C8FF11
:10485000FFF70EF8FEF734FCFFF7A2FC0C4B1A68CA
:104860009A4204D0996993688A689A4208D30023CF
:1048700083F31188019A23689A4205D103B030BDB1
:104880000448FEF75DFBF2E7FDF7C2F800080020E0
:10489000901E002050F600080000000000000000FC
:1048A0002DE9F0411E4F1F4E3B68B46982B00546AA
:1048B0000193FEF7DDFC65B3236C33B3B369D3F822
:1048C00040804046FFF714FF2E46A5622B4603E0CA
:1048D0009968A268914216D31B689D42F8D1266060
:1048E0007368636007201C607460FEF761FE4046D9
:1048F000A46AFFF775FD019A3B689A4220460CD1E5
:1049000002B0BDE8F0811E46E9E70748FEF718FB54
:10491000D4E70548FEF714FBCEE7FDF779F800BFB2
:1049200000080020901E002080F600080000000013
:1049300030B5164C83B0236801930546202383F3DA
:104940001188FFF715FCFEF79BFB2846FFF7A8FF31
:104950000546FEF7B5FBFFF723FC0D4B1A689A429C
:1049600004D0996993688A689A4209D3002383F333
:104970001188019A23689A42284605D103B030BDB8
:104980000448FEF7DDFAF1E7FDF742F800080020E1
:10499000901E002050F600080000000000000000FB
:1049A0002DE9F0431D4F83B03C68019491460C46BD
:1049B0009846064660B359B3202383F31188FFF766
:1049C000D7FB174DFEF75CFB336823603460AB699F
:1049D00063600023C4E90338C4F80890FEF770FB55
:1049E000FFF7DEFB2B68AB4204D0AA699B68926894
:1049F0009A4209D3002383F31188019A3B689A42B3
:104A00000AD103B0BDE8F0830648FEF799FAF1E752
:104A10000548FEF795FACFE7FCF7FAFF00080020FB
:104A2000901E002090F60008A0F60008000000008C
:104A300070B5164C82B0236801930546202383F39A
:104A40001188FFF795FBFEF71BFB0023EE68EB6078
:104A5000FEF736FBFFF7A4FB0D4B1A689A4204D011
:104A6000996993688A689A4209D3002383F311886D
:104A7000019A23689A42304605D102B070BD0548BC
:104A8000FEF75EFAF1E7FCF7C3FF00BF0008002065
:104A9000901E002090F600080000000000000000BA
:104AA00070B5184E82B00446336801930D46FEF788
:104AB000B7FB0CB3E16B94F8203029430A2BE16378
:104AC00016D00B2B05D0019A33689A4218D102B048
:104AD00070BDA36A8B43F6D1019A336800219A42D4
:104AE000A1620DD1204602B0BDE87040FEF7E0BCE7
:104AF000A36A1942F0D1E6E70348FEF721FAD9E7A5
:104B0000FCF786FF00080020E0F600080000000027
:104B1000F0B5134F83B006463B6801930D46FEF790
:104B20007FFBB6B13468A6420DD0E3682B43E36047
:104B300015B12269134203D0D4E90101FFF7B0FF98
:104B40002468A642F1D1019A3B689A4205D103B08C
:104B5000F0BD0448FEF7F4F9E4E7FCF759FF00BFA5
:104B600000080020C0F6000800000000000000005F
:104B70002DE9F041DFF87C801C4CD8F80030A569A5
:104B800082B006460193202383F31188FFF7F0FAE1
:104B9000FEF776FAEB6B13EA060706D1AE620A203F
:104BA000FEF706FDEB6B03EA060723EA0703EB6358
:104BB000FEF786FAFFF7F4FA2368A34204D0A2694D
:104BC0009B6892689A420BD3002383F31188019A61
:104BD000D8F800309A42384606D102B0BDE8F081DC
:104BE0000348FEF7ADF9EFE7FCF712FF901E002037
:104BF00090F60008000800200000000000000000FF
:104C000070B50C4CC16082B0266801960A44006001
:104C1000019E02612268069D4060C0E9051196422E
:104C20004FF00001C3618160056201D102B070BD27
:104C3000FCF7EEFE0008002000000000000000006D
:104C400070B5164D82B004462B6801930E46FEF7F0
:104C5000E7FAFEF7E5FAD4E905239A42A36816D0ED
:104C60000133511CA36061611670D4E904329A4289
:104C70000AD220460021FFF703F90020019A2B6891
:104C80009A4209D102B070BDE3686361F1E7002B7D
:104C9000E6D06FF00300F1E7FCF7BAFE0008002051
:104CA000F0B5234F83B03B68019304460E462023A2
:104CB00083F31188FFF75CFAFEF7E2F9E36943B189
:104CC0002046984705E031462046FFF7B1F8051E1B
:104CD00010DBFEF7A5FAA368002BF4D0A1692069C8
:104CE0004A1C013B8242A360A26128BFE3680D78A1
:104CF00028BFA361FEF7E4F9FFF752FA0D4B1A68DB
:104D00009A4204D0996993688A689A4209D3002329
:104D100083F31188019A3B689A42284605D103B073
:104D2000F0BD0548FEF70CF9F1E7FCF771FE00BF96
:104D300000080020901E0020F0F60008000000008F
:104D40002DE9F04FDFF8F490044685B0D9F8000063
:104D500003908A461D46D4F81C809346002A60D0F2
:104D6000202383F311880193FFF702FAFEF788F9F5
:104D70002F4E0027B8F1000F07D02046C04704E0AF
:104D800029462046FFF754F860BBFEF749FAA368AE
:104D9000002BF5D0A269013B511CA161A3601378DF
:104DA0000AF8013B2369A2699A4224BFE368A36120
:104DB000FEF786F9FFF7F4F93368B34204D0B2691D
:104DC0009B6892689A4228D3002383F311880137A5
:104DD000BB4519D0019B83F31188FFF7C9F9FEF792
:104DE0004FF9C7E7FEF76CF9FFF7DAF93368B3421A
:104DF00007D0B2699B6892689A4202D20D48FEF7CA
:104E00009FF8002383F31188039AD9F800309A425F
:104E100038460AD105B0BDE8F08F0648FEF790F895
:104E2000D2E70548FEF78CF89AE7FCF7F1FD00BFE2
:104E3000901E0020F0F6000800F70008000800208F
:104E400070B50B4D82602E68C16082B0C0E9000071
:104E500001960A44019E02612A68069C9642C0E9B6
:104E60000511C0E9073401D102B070BDFCF7D0FDD7
:104E7000000800200000000000000000000000000A
:104E80002DE9F0412E4F82B03B68019304468846DD
:104E90001646202383F31188FFF76AF9FEF7F0F82E
:104EA00005E031462046FEF7C3FF051E2DDBFEF769
:104EB000B7F9A368002BF4D06269013B511C616112
:104EC000A36082F80080D4E904329A4224BFE368E8
:104ED0006361E3690BB120469847FEF7F1F8FFF7ED
:104EE0005FF9184B1A689A4204D0996993688A68E6
:104EF0009A421ED3002585F31188019A3B689A4295
:104F000028461AD102B0BDE8F081FEF7D9F8FFF7C4
:104F100047F90C4B1A689A4207D0996993688A68D6
:104F20009A4202D20848FEF70BF8002383F3118857
:104F3000E3E70548FEF704F8DCE7FCF769FD00BF8E
:104F400000080020901E0020F0F60008000000007D
:104F500070B5154E82B0044633680193FEF760F9D0
:104F6000FEF75EF9D4E905329342A36815D02069B3
:104F7000511C0133A360A161814215780AD22046F9
:104F80000021FEF77DFF2846019A33689A4209D135
:104F900002B070BDE368A361F1E7002BE7D06FF0CA
:104FA0000200F1E7FCF734FD0008002000000000DB
:104FB0002DE9F04F04463B48D4F81C90006885B0BA
:104FC0000D46039001931646002A61D04FF0200A47
:104FD0008AF31188FFF7CCF8FEF752F84FF000087B
:104FE000314FC346FEF71CF9A368002B32D062692B
:104FF000013B511C6161A3602B781370D4E904322A
:105000009A4224BFE36863610135B9F1000F01D012
:105010002046C847FEF754F8FFF7C2F83B68BB428A
:1050200007D0BA699B6892689A4202D21F48FDF77E
:1050300087FF8BF31188013E08F101081FD08AF326
:105040001188FFF795F8FEF71BF8FEF7E9F8A3685B
:10505000002BCCD101992046FEF7EAFE0028C1D0F2
:10506000FEF72EF8FFF79CF83B68BB4204D0BA6904
:105070009B6892689A420FD3002383F31188094BEF
:10508000039A1B689A4240460AD105B0BDE8F08FEA
:105090000748FDF755FF99E70448FDF751FFEBE797
:1050A000FCF7B6FC00080020901E0020F0F6000877
:1050B00010F70008000000000000000000000000E1
:1050C00030B50B490B4A0B680B4D0C4C83B022F0EA
:1050D0000702019301980A4B09682A6023F007032D
:1050E0008842236001D103B030BDFCF791FC00BFC2
:1050F00000080020532E0020042500200025002059
:10510000000002200000000000000000000000007D
:1051100070B51C4E82B0336801930446202383F39C
:105120001188FFF725F8FDF7ABFFFEF779F8164A6F
:10513000164B15681B68E01D20F007005B1B9842AA
:105140009ABF401910600025FDF7BAFFFFF728F855
:105150000F4B1A689A4204D0996993688A689A42F8
:1051600009D3002383F31188019A33689A422846B1
:1051700005D102B070BD0748FDF7E2FEF1E7FCF78C
:1051800047FC00BF00080020042500200025002067
:10519000901E002030F70008000000000000000012
:1051A00000B50B4B0B481A6883B0019201991A683D
:1051B000094B036091424FF00003C0E9023305D16F
:1051C000103003B05DF804EBFFF7EAB8FCF720FC01
:1051D00000080020082500201151000800000000F0
:1051E00080B50D4A0D4982B000AF13687B604B68F3
:1051F00023F001034B60EFF30983683383F30988DD
:10520000002383F3118879681368994202D1083723
:10521000BD4680BDFCF7FCFB0008002030EF00E03D
:10522000B0B5194C82B000AF23687B60202383F3B4
:105230001188164B5B6813F4006308D183F311885F
:105240007A6823689A421DD10837BD46B0BDF1EE99
:10525000103AEFF309854FF080720D4B45F84C2C56
:10526000DB6845F8083CA5F1680383F30988FEF77D
:105270005FFA18B1074B45F8503CE1E7064B45F89B
:10528000503CDDE7FCF7C4FB0008002000ED00E027
:1052900030EF00E0F1020008040300080000000005
:1052A00010B5184C82B02368019301F019FE16481E
:1052B00003F0CEF900F0D4F800F0CAF900F010FACB
:1052C00000F03EFA00F06CFA00F09AFA00F0C8FA2A
:1052D00000F0F6FA01F044F901F04AF801F018FA8A
:1052E00001F05EFA01F004FA05F092F9019A2368E0
:1052F0009A4204D102B0BDE8104001F039BAFCF77F
:1053000087FB00BF0008002030FC00080000000000
:10531000F0B51A4D83B02B68019391420E461446A6
:10532000074619D38B1A1F2B16D806F01F03581CDB
:105330006209012376098340B24203F1FF3304F08E
:105340001F0457F822000BD31840E040019A2B6845
:105350009A4210D103B0F0BD0948FDF7F1FDE4E732
:1053600057F82610C4F120020B4020FA04F403FA87
:1053700002F02043EAE7FCF74BFB00BF00080020E7
:1053800040F70008000000000000000000000000DE
:10539000F0B51D4E83B033680193054670B37E228D
:1053A0007F212846FFF7B4FF80B1012806D00020F6
:1053B000019A33689A4225D103B0F0BD28463022C5
:1053C0004521FFF7A5FF01308002F1E73E22492188
:1053D0002846FFF79DFF2F22044631212846FFF77C
:1053E00097FF5022074653212846FFF791FF0134CB
:1053F00002370938BC4004FA00F0D9E70348FDF74A
:105400009FFDCCE7FCF704FB0008002060F70008D4
:10541000F0B5104D83B02B680193044698B194F811
:10542000D63094F8D770019994F8D4602A6894F82B
:10543000D5001B0403EB07633344914203EB0020C8
:1054400005D103B0F0BD0448FDF77AFDE7E7FCF7AE
:10545000DFFA00BF0008002080F70008000000000D
:1054600000B5074B83B01A680192019A1B689A42F3
:1054700004D103B05DF804EB02F0CAB8FCF7C8FA37
:1054800000080020000000000000000000000000F4
:1054900000B50C4B83B01A68019201220270019989
:1054A0001A6800239142C0E90133C0E90333436124
:1054B00005D1183003B05DF804EBFEF771BFFCF7BF
:1054C000A7FA00BF00080020000000000000000054
:1054D00070B51D4D82B02B6801930E46044668B32B
:1054E000202383F31188FEF743FEFDF7C9FD2378DF
:1054F000013B012B02D91548FDF722FD20466660CD
:1055000002F0D6F802232370FDF7DAFDFEF748FE1D
:105510000F4B1A689A4204D0996993688A689A4234
:1055200008D3002383F31188019A2B689A4209D18A
:1055300002B070BD0748FDF703FDF2E70348FDF731
:10554000FFFCCDE7FCF764FA00080020B0F7000884
:10555000901E0020A0F700080000000000000000DE
:105560002DE9F041174D82B00446286801900E469F
:1055700090461F46FDF754FE3CB136B1B8F1000F1E
:1055800003D0012F04D0FB0702D50F48FDF7D8FC4C
:105590002378022B05D0043B012B02D90A48FDF7E2
:1055A000CFFC03232370019A2B6826619A42C4E939
:1055B000028705D1204602B0BDE8F04102F0F8B8FC
:1055C000FCF726FA00080020C0F7000800000000E1
:1055D0002DE9F041184C82B02568019598460546A2
:1055E0000E461746202383F31188FEF7C1FDFDF711
:1055F00047FD43463A4631462846FFF7B1FFFDF7DF
:105600005FFDFEF7CDFD0D4B1A689A4204D09969F3
:1056100093688A689A4209D3002383F31188019A18
:1056200023689A4206D102B0BDE8F0810448FDF734
:1056300087FCF1E7FCF7ECF900080020901E002041
:10564000A0F70008000000000000000000000000BB
:1056500000B5074B83B01A680192019A1B689A4201
:1056600004D103B05DF804EB02F07ABCFCF7D0F98A
:105670000008002000000000000000000000000002
:1056800030B5134B83B01A68019201220270019C5D
:105690001968002200F1180300F11C0542608361C3
:1056A00000F1200200F12403C561026200F1280527
:1056B00000F1080243628C4200F110038562C0E9E8
:1056C0000222C0E9043301D103B030BDFCF7A0F9D8
:1056D00000080020000000000000000000000000A2
:1056E00000B5074B83B01A680192019A1B689A4271
:1056F00004D103B05DF804EB02F06ABCFCF788F952
:105700000008002000000000000000000000000071
:1057100000B50A4B83B01A68019201220270019908
:105720001A6800239142C0E9043305D1183003B050
:105730005DF804EBFEF734BEFCF76AF900080020C0
:1057400000B5074B83B01A680192019A1B689A4210
:1057500004D103B05DF804EB02F022BCFCF758F969
:105760000008002000000000000000000000000011
:1057700000B5084B83B01A68019201220270019AA9
:105780001B6800219A42416002D103B05DF804FB1E
:10579000FCF73EF9000800200000000000000000B7
:1057A00000B5074B83B01A680192019A1B689A42B0
:1057B00004D103B05DF804EB04F0AABAFCF728F9B1
:1057C00000080020000000000000000000000000B1
:1057D00000B5084B83B01A68019201220270019A49
:1057E0001B6800219A42416002D103B05DF804FBBE
:1057F000FCF70EF900080020000000000000000087
:1058000000B5074B83B01A680192019A1B689A424F
:1058100004D103B05DF804EB03F032B9FCF7F8F8FB
:105820000008002000000000000000000000000050
:1058300000B50A4B83B01A68019201220270019AE6
:105840001B6800219A42416005D10C3003B05DF81D
:1058500004EBFEF7A5BDFCF7DBF800BF0008002055
:1058600000B5074B83B01A680192019A1B689A42EF
:1058700004D103B05DF804EB04F06AB9FCF7C8F892
:1058800000080020000000000000000000000000F0
:1058900000B5084B83B01A68019201220270019A88
:1058A0001B6800219A42416002D103B05DF804FBFD
:1058B000FCF7AEF800080020000000000000000027
:1058C00000B5074B83B01A680192019A1B689A428F
:1058D00004D103B05DF804EB04F00ABBFCF798F8C0
:1058E0000008002000000000000000000000000090
:1058F00000B5094B83B01A68019201220270019928
:105900001A68002391424360C360037402D103B05C
:105910005DF804FBFCF77CF80008002000000000A4
:1059200070B5214E82B0336801930D4604460028BD
:1059300033D0002931D0202383F31188FEF718FCDF
:10594000FDF79EFB2378013B012B02D91748FDF799
:10595000F7FA65606B68A360204604F009FB00223B
:105960000223E2602370FDF7ABFBFEF719FC104B3E
:105970001A689A4204D0996993688A689A4208D34F
:10598000002383F31188019A33689A4209D102B047
:1059900070BD0848FDF7D4FAF2E70448FDF7D0FAE5
:1059A000C9E7FCF735F800BF00080020F0F7000851
:1059B000901E0020E0F7000800000000000000003A
:1059C00070B51C4E82B0336801930C46054650B347
:1059D000202383F31188FEF7CBFBFDF751FB2B78D7
:1059E000022B02D01448FDF7ABFAAB69AC60013C66
:1059F000DC62FDF765FBFEF7D3FB104B1A689A4299
:105A000004D0996993688A689A4208D3002383F383
:105A10001188019A33689A4209D102B070BD0848D2
:105A2000FDF78EFAF2E70448FDF78AFAD0E7FBF7B4
:105A3000EFFF00BF0008002000F80008901E0020C3
:105A4000E0F7000800000000000000000000000077
:105A5000F0B5214E83B0336801930D4617460446D6
:105A600078B3037C8B422CD9202383F31188FEF773
:105A70007FFBFDF705FB2378022B02D01748FDF7CB
:105A80005FFAE3680122AA401343E3603A462946DD
:105A9000204604F055FBFDF713FBFEF781FB104B8E
:105AA0001A689A4204D0996993688A689A420CD31A
:105AB000002383F31188019A33689A4209D103B015
:105AC000F0BD0648FDF73CFACEE70648FDF738FA88
:105AD000EEE7FBF79DFF00BF0008002010F800086C
